:100000000C945D000C9485000C9485000C94850084
:100010000C9485000C9485000C9485000C9485004C
:100020000C9485000C9485000C9485000C9485003C
:100030000C9485000C9485000C9485000C9485002C
:100040000C9463020C9485000C94D3020C94AD02C2
:100050000C9485000C9485000C9485000C9485000C
:100060000C9485000C9485000000000024002700FB
:100070002A0000000000250028002B0004040404CE
:100080000404040402020202020203030303030342
:10009000010204081020408001020408102001021F
:1000A00004081020000000080002010000030407FB
:1000B0000000000000000000D50311241FBECFEF98
:1000C000D8E0DEBFCDBF11E0A0E0B1E0E4E1F8E0B0
:1000D00002C005900D92AA3BB107D9F722E0AAEB26
:1000E000B1E001C01D92A036B207E1F710E0CDE506
:1000F000D0E004C02197FE010E940204CC35D10754
:10010000C9F70E9405030C9408040C94000090E0C9
:10011000FC01EC55FF4F2491FC01E057FF4F349157
:10012000FC01E458FF4FE491EE23C9F0222339F09B
:10013000233001F1A8F4213019F1223029F1F0E047
:10014000EE0FFF1FEE58FF4FA591B4918FB7F894B3
:10015000EC91611126C030953E233C938FBF0895EA
:100160002730A9F02830C9F0243049F78091800069
:100170008F7D03C0809180008F7780938000DFCFD8
:1001800084B58F7784BDDBCF84B58F7DFBCF809125
:10019000B0008F778093B000D2CF8091B0008F7D78
:1001A000F9CF3E2BDACF3FB7F89480915C02909163
:1001B0005D02A0915E02B0915F0226B5A89B05C0CA
:1001C0002F3F19F00196A11DB11D3FBFBA2FA92FD6
:1001D000982F8827BC01CD01620F711D811D911DD3
:1001E00042E0660F771F881F991F4A95D1F708953F
:1001F0008F929F92AF92BF92CF92DF92EF92FF9237
:100200006B017C010E94D3004B015C01C114D1043D
:10021000E104F104B9F00E94D300681979098A0950
:100220009B09683E73408105910580F321E0C21A65
:10023000D108E108F10888EE880E83E0981EA11C21
:10024000B11CE4CFFF90EF90DF90CF90BF90AF90C4
:100250009F908F900895AF92BF92CF92DF92EF92CE
:10026000FF920F931F93CF93DF936C017B018B0160
:10027000040F151FEB015E01AE18BF08C017D107B0
:1002800059F06991D601ED91FC910190F081E02D3A
:10029000C6010995892B79F7C501DF91CF911F918F
:1002A0000F91FF90EF90DF90CF90BF90AF900895A7
:1002B000FC01538D448D252F30E0842F90E0821B6C
:1002C000930B541710F0CF96089501970895FC01F1
:1002D000918D828D981761F0A28DAE0FBF2FB11D49
:1002E0005D968C91928D9F5F9F73928F90E00895A1
:1002F0008FEF9FEF0895FC01918D828D981731F05B
:10030000828DE80FF11D858D90E008958FEF9FEFAE
:100310000895FC01918D228D892F90E0805C9F4F84
:10032000821B91098F73992708958AEB91E00E94AF
:10033000890121E0892B09F420E0822F089580E0D3
:1003400090E0892B29F00E94950181110C94000006
:100350000895FC01A48DA80FB92FB11DA35ABF4F5A
:100360002C91848D90E001968F739927848FA689B4
:10037000B7892C93A089B1898C91837080648C9308
:10038000938D848D981306C00288F389E02D8081B7
:100390008F7D80830895EF92FF920F931F93CF93E9
:1003A000DF93EC0181E0888F9B8D8C8D98131AC0B0
:1003B000E889F989808185FF15C09FB7F894EE8997
:1003C000FF896083E889F9898081837080648083F4
:1003D0009FBF81E090E0DF91CF911F910F91FF903F
:1003E000EF900895F62E0B8D10E00F5F1F4F0F73E7
:1003F0001127E02E8C8D8E110CC00FB607FCFACFA2
:10040000E889F989808185FFF5CFCE010E94A90195
:10041000F1CFEB8DEC0FFD2FF11DE35AFF4FF08272
:100420009FB7F8940B8FEA89FB8980818062CFCFD8
:10043000CF93DF93EC01888D8823B9F0AA89BB891B
:10044000E889F9898C9185FD03C0808186FD0DC006
:100450000FB607FCF7CF8C9185FFF2CF808185FF27
:10046000EDCFCE010E94A901E9CFDF91CF91089590
:100470001F93CF93DF93EC0119911123D9F061E021
:100480008CE00E94870068EC70E080E090E01E3213
:1004900021F068E572E080E090E00E94F80060E002
:1004A0008CE00E94870068EC70E080E090E00E94A1
:1004B000F800E2CF68E572E080E090E0DF91CF9154
:1004C0001F910C94F8001F920F920FB60F921124F7
:1004D0002F933F938F939F93AF93BF938091580235
:1004E00090915902A0915A02B0915B02309157024B
:1004F00023E0230F2D3758F50196A11DB11D209340
:1005000057028093580290935902A0935A02B093D5
:100510005B0280915C0290915D02A0915E02B091BD
:100520005F020196A11DB11D80935C0290935D0254
:10053000A0935E02B0935F02BF91AF919F918F91A4
:100540003F912F910F900FBE0F901F90189526E8A6
:10055000230F0296A11DB11DD2CF1F920F920FB68D
:100560000F9211242F933F934F935F936F937F9339
:100570008F939F93AF93BF93EF93FF938AEB91E099
:100580000E94A901FF91EF91BF91AF919F918F912F
:100590007F916F915F914F913F912F910F900FBE7F
:1005A0000F901F9018951F920F920FB60F92112463
:1005B0002F938F939F93EF93FF93E091CA01F09154
:1005C000CB018081E091D001F091D10182FD1BC06F
:1005D00090818091D3018F5F8F732091D401821716
:1005E00041F0E091D301F0E0E654FE4F958F809307
:1005F000D301FF91EF919F918F912F910F900FBE9B
:100600000F901F9018958081F4CF789484B5826004
:1006100084BD84B5816084BD85B5826085BD85B5A6
:10062000816085BD80916E00816080936E00109224
:10063000810080918100826080938100809181009F
:100640008160809381008091800081608093800030
:100650008091B10084608093B1008091B00081608E
:100660008093B00080917A00846080937A008091BA
:100670007A00826080937A0080917A008160809312
:100680007A0080917A00806880937A001092C1008D
:10069000ECE9F0E02491E8E8F0E08491882399F017
:1006A00090E0880F991FFC01E859FF4FA591B49184
:1006B000FC01EE58FF4F859194918FB7F894EC911F
:1006C000E22BEC938FBFE091CA01F091CB0182E065
:1006D0008083E091C601F091C7011082E091C801CA
:1006E000F091C9018FEC80831092D201E091CE018C
:1006F000F091CF0186E08083E091CC01F091CD01B3
:10070000808180618083E091CC01F091CD01808176
:1007100088608083E091CC01F091CD018081806878
:100720008083E091CC01F091CD0180818F7D808329
:10073000C0E0D0E08AEB91E00E948901892B89F02A
:100740008AEB91E00E946701E82F8FE98E0F8A31D2
:1007500088F4EE0FFF0BEC59FF4F808191810E94CE
:100760003802209739F30E949501882319F30E94DB
:100770000000E0CF8FEB8E0F8A3128F4EE0FFF0BD5
:10078000EC55FF4FEACF80ED8E0F8A3028F4EE0F44
:10079000FF0BEE54FF4FE1CFE03219F760E273E058
:1007A00080E090E00E94F800DCCFEAEBF1E01382F9
:1007B000128288EE93E0A0E0B0E084839583A68364
:1007C000B78384E091E09183808385EC90E0958706
:1007D000848784EC90E09787868780EC90E0918B0B
:1007E000808B81EC90E0938B828B82EC90E0958BF8
:1007F000848B86EC90E0978B868B118E128E138EF5
:10080000148E0895EE0FFF1F0590F491E02D0994CA
:04081000F894FFCF8A
:1008140000000000CB012B01580118028901670177
:100824007B015A01600166016C01720178017E014D
:1008340084018A019001AC01850196018C01940127
:100844009B0192017F018D016701AB01A0015D0154
:1008540093015C01A501AA01970186015E01B00123
:100864007301B501AF01B4018B012D2D2D2D2D0088
:100874002E2D2D2D2D002E2E2D2D2D002E2E2E2DF8
:100884002D002E2E2E2E2D002E2E2E2E2E002D2E11
:100894002E2E2E002D2D2E2E2E002D2D2D2E2E0003
:1008A4002D2D2D2D2E002D2E2D2E002E2E2D2E00F5
:1008B4002E2D2E2E002E2D2D2E002D2D2E2D002DE5
:0A08C4002E2E2D002D2E2D2D0000EC
:00000001FF
