:100000000C9462000C948A000C948A000C948A0070
:100010000C948A000C948A000C948A000C948A0038
:100020000C948A000C948A000C948A000C948A0028
:100030000C948A000C948A000C948A000C948A0018
:100040000C94FB030C948A000C948A000C948A0094
:100050000C948A000C948A000C948A000C948A00F8
:100060000C948A000C948A000000000024002700F1
:100070002A0000000000250028002B0000000000DE
:1000800023002600290004040404040404040202DA
:100090000202020203030303030301020408102007
:1000A0004080010204081020010204081020000012
:1000B0000008000201000003040700000000000027
:1000C0000000580611241FBECFEFD8E0DEBFCDBF21
:1000D00011E0A0E0B1E0EEEAFDE002C005900D9273
:1000E000A837B107D9F722E0A8E7B1E001C01D9217
:1000F000AD30B207E1F710E0C2E6D0E004C02197CE
:10010000FE010E94CF06C136D107C9F70E944504FF
:100110000C94D5060C94000096E0899FD001112420
:10012000AA57BE4F90967C936E935F9791E09196FD
:100130009C939197E091F301F091F4019091F20179
:10014000992339F0309751F0811108C08091A201B4
:100150000994309719F05C968C91FACF0895CF925C
:10016000DF92EF92FF920F931F9396E0899FF00129
:100170001124EA57FE4F11A2278D30A121303105FD
:1001800051F178F02230310509F451C023303105A6
:1001900009F452C01F910F91FF90EF90DF90CF9024
:1001A00008956623B9F361E070E00E948C002FB7D8
:1001B000F8948091820190918301A0918401B09183
:1001C00085012FBF8093DE019093DF01A093E001B2
:1001D000B093E101DFCF9FB7F894C0908201D09037
:1001E0008301E0908401F09085019FBF0091DE01C2
:1001F0001091DF012091E0013091E101C01AD10A94
:10020000E20AF30A0091F0011091F10130E020E0E0
:100210000C151D052E053F0550F462E070E01F919E
:100220000F91FF90EF90DF90CF900C948C006111B4
:10023000B1CF63E070E0F3CF70E060E0F0CF8330E7
:1002400081F028F4813099F08230A9F00895873048
:10025000A9F08830C9F08430B1F4809180008F7D9E
:1002600003C0809180008F7780938000089584B5CB
:100270008F7784BD089584B58F7DFBCF8091B000CA
:100280008F778093B00008958091B0008F7DF9CF73
:10029000CF93DF93282F30E0F901E255FF4F84918F
:1002A000F901E656FF4FD491F901EA57FF4FC49187
:1002B000CC23A1F081110E941F01EC2FF0E0EE0F82
:1002C000FF1FE458FF4FA591B491EC91ED2381E01D
:1002D00090E009F480E0DF91CF91089580E090E014
:1002E000FACF1F93CF93DF93282F30E0F901E25527
:1002F000FF4F8491F901E656FF4FD491F901EA5777
:10030000FF4FC491CC23A9F0162F81110E941F0129
:10031000EC2FF0E0EE0FFF1FEE58FF4FA591B491C8
:100320008FB7F894EC91111108C0D095DE23DC93BF
:100330008FBFDF91CF911F910895DE2BF8CFCF9320
:10034000DF9390E0FC01E656FF4F24918A579F4FC0
:10035000FC0184918823C9F090E0880F991FFC016B
:10036000E859FF4FA591B491FC01EE58FF4FC5919C
:10037000D49161110DC09FB7F8948C912095822380
:100380008C938881282328839FBFDF91CF91089584
:10039000623051F49FB7F8943C91822F809583236B
:1003A0008C93E8812E2BEFCF8FB7F894EC912E2B06
:1003B0002C938FBFEACF3FB7F89480917E01909144
:1003C0007F01A0918001B091810126B5A89B05C055
:1003D0002F3F19F00196A11DB11D3FBFBA2FA92FC4
:1003E000982F8827BC01CD01620F711D811D911DC1
:1003F00042E0660F771F881F991F4A95D1F708952D
:100400008F929F92AF92BF92CF92DF92EF92FF9224
:100410004B015C010E94DB016B017C010E94DB014E
:100420006C197D098E099F09683E7340810591050D
:10043000A8F321E0821A9108A108B10888EEC80E3D
:1004400083E0D81EE11CF11C81149104A104B104C5
:1004500029F7FF90EF90DF90CF90BF90AF909F90E3
:100460008F900895862F642F0C949F01862F642F00
:100470000C947101862F0C944801AF92BF92CF92D9
:10048000DF92EF92FF920F931F93CF93DF936C0154
:100490007B018B01040F151FEB015E01AE18BF0835
:1004A000C017D10759F06991D601ED91FC910190E7
:1004B000F081E02DC6010995892B79F7C501DF91FF
:1004C000CF911F910F91FF90EF90DF90CF90BF9051
:1004D000AF900895089590E080E00895FC010190A8
:1004E0000020E9F73197AF01481B590BBC0185EF9C
:1004F00091E00C943D02CF93DF93EC0160E08E819C
:100500000E94710161E08E810E94710160E08E8124
:100510000E9471018BE891E00197F1F7DF91CF9193
:100520000895CF92DF92EF92FF920F931F93CF9394
:10053000DF936C017C0187E0E80EF11CD0E0C0E0A5
:10054000062F10E0B8010C2E02C0759567950A942D
:10055000E2F76170F70181917F010E94710121969C
:10056000C430D10579F7C601DF91CF911F910F916A
:10057000FF90EF90DF90CF900C947B02CF92DF92B0
:10058000EF92FF920F931F93CF93DF93EC01F62E20
:10059000642F8C810E9471018D818F3F19F060E082
:1005A0000E9471010F2D10E08F8584FF25C06E0120
:1005B00087E0C80ED11CF12CE12CB8010E2C02C032
:1005C000759567950A94E2F76170F60181916F0164
:1005D0000E947101FFEFEF1AFF0A88E0E816F104AC
:1005E00061F7CE01DF91CF911F910F91FF90EF90B6
:1005F000DF90CF900C947B02B80184E075956795ED
:100600008A95E1F7CE010E9491026F2DCE01DF9114
:10061000CF911F910F91FF90EF90DF90CF900C94AE
:10062000910240E0682F85EF91E00C94BE02CF93D9
:10063000DF93823029F49091040298609093040231
:10064000809308021092090280E480930A0280E1FC
:1006500080930B0280E580930C0261E08091F901A8
:100660000E949F018091FA018F3F19F061E00E9482
:100670009F0161E08091FB010E949F01C5EFD1E0E5
:100680009E01255F31408091040284FD0BC084E00F
:1006900090E021962817390744F461E08E810E948A
:1006A0009F01EECF88E090E0F4CF8BE39DE00197CF
:1006B000F1F760E08091F9010E94710160E08091A2
:1006C000FB010E9471018091FA018F3F19F060E0F7
:1006D0000E9471018091040284FD39C063E085EFBE
:1006E00091E00E949102CBE4D6E4CE010197F1F7AC
:1006F00063E085EF91E00E9491022197F1F763E0BA
:1007000085EF91E00E94910283E592E00197F1F775
:1007100062E085EF91E00E94910280910402806284
:100720000E94110384E0809305028CE00E94110373
:1007300081E00E9411038BE39FE10197F1F782E0D2
:100740008093060286E0DF91CF910C9411038062C2
:100750000E9411038BE496E40197F1F78091040263
:1007600080620E94110383E592E00197F1F7809186
:10077000040280620E941103D0CFE0910802E230AF
:1007800040F4E150F0E0EB50FE4F848980680C9417
:100790001103E1E0F7CF0E94BD038EE291E00C94DB
:1007A0006E020E94BD038FE391E00E946E026CED29
:1007B00075E080E090E00E9400020E94CB030E945E
:1007C000BD038EE291E00E946E020E94BD03109272
:1007D0007C0161E08BE00E94710160E08AE00E9490
:1007E000710160E08CE00C94710141E00E94BE0256
:1007F00081E090E008951F920F920FB60F9211249E
:100800002F933F938F939F93AF93BF9380918201D8
:1008100090918301A0918401B091850130917D0177
:1008200023E0230F2D3758F50196A11DB11D20930C
:100830007D018093820190938301A0938401B09302
:10084000850180917E0190917F01A0918001B091FE
:1008500081010196A11DB11D80937E0190937F01BE
:10086000A0938001B0938101BF91AF919F918F912F
:100870003F912F910F900FBE0F901F90189526E873
:10088000230F0296A11DB11DD2CF789484B582604A
:1008900084BD84B5816084BD85B5826085BD85B524
:1008A000816085BD80916E00816080936E001092A2
:1008B000810080918100826080938100809181001D
:1008C00081608093810080918000816080938000AE
:1008D0008091B10084608093B1008091B00081600C
:1008E0008093B00080917A00846080937A00809138
:1008F0007A00826080937A0080917A008160809390
:100900007A0080917A00806880937A001092C1000A
:1009100061E08BE00E949F0161E08AE00E949F01FC
:1009200061E08CE00E949F0182E00E9417038BE44B
:1009300091E00E946E020E94BD0380910502982FF3
:100940009260909305028A600E94110361E08BE03F
:100950000E94710160E08AE00E94710160E08CE019
:100960000E947101412C512C3201439488248A94B5
:10097000982C50E0C52E50E0D52E51E05093F20156
:100980008FB7F89440918201509183016091840166
:10099000709185018FBF8091E2019091E301A09158
:1009A000E401B091E501481B590B6A0B7B0B809168
:1009B000EE019091EF01B0E0A0E084179507A60743
:1009C000B70708F014C1C0E08091EC01C81760F4CB
:1009D000E091E801F091E901EC0FF11D62E0808106
:1009E0000E949F01CF5FF0CF312C8091ED0138162E
:1009F00008F05FC0032D10E0E091EA01F091EB01F7
:100A0000E00FF11F61E080810E949F01E091EA0107
:100A1000F091EB01E00FF11F60E080810E94710115
:100A2000D301C201032C04C0880F991FAA1FBB1F4A
:100A30000A94D2F75C017C01E094F094212C80911F
:100A4000EC012816F8F4C22DD0E0E091E801F09115
:100A5000E901EC0FFD1F80810E9448012496CC0F14
:100A6000DD1FCA57DE4F892B41F4888199818A297D
:100A70009B29998388832394E2CF888199818E2151
:100A80009F21F7CFE091EA01F091EB01E00FF11F18
:100A900061E080810E9471018091EA019091EB01F7
:100AA000080F191F60E0F80180810E949F013394B4
:100AB0009CCF06E811E0E8018F8D98A1892B21F4E5
:100AC0001C8E9E8E8D8E19A2269682EC91E08C173C
:100AD0009D0791F7B12C8091EC01B81608F053C036
:100AE000A12CEB2CF12CEE0CFF1CF701E257FE4F72
:100AF0007F012091ED01A21608F043C0F70160814B
:100B000071810A2C02C0769567950A94E2F7B29E2D
:100B1000900111242A0D311DE6E8F1E080E0458DB9
:100B2000568D2417350709F4C1C08F5F36968A3079
:100B3000B1F760FF24C0E6E8F1E090E080E0448D8A
:100B4000411118C0E091E601F091E701E20FF31FB7
:100B5000408156E0589FF001599FF00D1124EA574B
:100B6000FE4F448F368F258F10A2178E61E00E94B2
:100B7000AF0005C0019636968A30910501F7A3941F
:100B8000B8CFB394A8CF80E0F80191A19111892F3B
:100B90000A5F1F4F0C171D07B9F79FB7F8944091D4
:100BA00082015091830160918401709185019FBF02
:100BB0004093E2015093E3016093E4017093E501F7
:100BC0008823A9F08091A701882389F08091A5014D
:100BD0009091A601019759F4C091A201C1110AC0D8
:100BE000C114D10409F4C9CE0E940000C6CE1092EF
:100BF000F201F6CFD0917C01D430ACF4CD33D1F0FA
:100C0000C33499F041E06AE285EF91E00E94BE02B0
:100C1000ED2F0D2E000CFF0BE858FE4FC083DF5F59
:100C2000D0937C01DDCFC33419F40E94D103D8CF17
:100C3000CD33B1F680917801813339F58091790116
:100C4000823319F580917A018333F9F480917B0125
:100C50008433D9F460E08BE00E94710161E08AE0A6
:100C60000E94710161E08CE00E9471010E94CB033F
:100C70000E94BD038CE591E00E946E0268E873E17A
:100C800080E090E00E940002D0CF0E94CB030E943F
:100C9000BD0386E691E00E946E026CED75E080E097
:100CA00090E00E9400020E94CB03BFCF61705FCF33
:100CB0001092F8011092F70186E291E09093F6010C
:100CC0008093F50189E08093F9018FEF8093FA0119
:100CD00088E08093FB0187E08093FC0186E08093AD
:100CE000FD0185E08093FE0184E08093FF01109276
:100CF000000210920102109202021092030210925E
:100D0000040281E00E9417031092880110928C0166
:100D100010928B0110928D018CE191E090938701EC
:100D200080938601E2EAF1E0108214821382158238
:100D3000369681E0EE3DF807B9F784E091E09093B4
:100D4000E9018093E80180E091E09093EB018093CA
:100D5000EA0184E08093EC018093ED0188E091E06A
:100D60009093E7018093E6018AE090E09093EF0191
:100D70008093EE0184EF91E09093F1018093F00174
:100D80001092F4011092F3011092E2011092E3012B
:100D90001092E4011092E5011092F2010895EE0F15
:0E0DA000FF1F0590F491E02D0994F894FFCF09
:100DAE0011100F0E030213123738392F3435362A2D
:100DBE003132332D43303D2B00000000320236021B
:100DCE003A0200000000F5033D026B026A02202089
:100DDE002020202020202020202020202020004401
:100DEE004F4F52204C4F434B454400506173737725
:100DFE006F7264204163636573733A00444F4F52C0
:100E0E00204F50454E00696E76616C6964205061CA
:080E1E007373776F7264210009
:00000001FF
