:020000040000FA
:100000000C945E000C9486000C9486000C94860080
:100010000C9486000C9486000C9486000C94B70314
:100020000C9486000C9486000C9486000C94860038
:100030000C9486000C9486000C9486000C94860028
:100040000C946D030C9486000C9486000C9486002E
:100050000C9486000C9486000C9486000C94860008
:100060000C9486000C9486000200000000240027F7
:10007000002A0000000000250028002B00040404D2
:100080000404040404020202020202030303030341
:10009000030102040810204080010204081020011E
:1000A0000204081020000000080002010000030400
:1000B00007000000000000000000F00511241FBE32
:1000C000CFEFD8E0DEBFCDBF11E0A0E0B1E0E0E7C8
:1000D000FCE002C005900D92A836B107D9F721E0E7
:1000E000A8E6B1E001C01D92AC39B207E1F710E01B
:1000F000CEE5D0E004C02197FE010E943006CD3548
:10010000D107C9F70E9413040C9436060C94000022
:1001100090E0FC01EB55FF4F2491FC01EF56FF4F9F
:100120003491FC01E358FF4FE491EE23C9F0222300
:1001300039F0233001F1A8F4213019F1223029F1EE
:10014000F0E0EE0FFF1FED58FF4FA591B4918FB770
:10015000F894EC91611126C030953E233C938FBFFB
:1001600008952730A9F02830C9F0243049F780914C
:1001700080008F7D03C0809180008F778093800006
:10018000DFCF84B58F7784BDDBCF84B58F7DFBCF88
:100190008091B0008F778093B000D2CF8091B00073
:1001A0008F7DF9CF3E2BDACFCF93DF9390E0FC0128
:1001B000EF56FF4F249183589F4FFC018491882371
:1001C000D1F090E0880F991FFC01E759FF4FA591EE
:1001D000B491FC01ED58FF4FC591D49161110EC04F
:1001E0009FB7F8948C91E22FE0958E238C93288111
:1001F000E223E8839FBFDF91CF9108958FB7F894F2
:10020000EC91E22BEC938FBFF6CF3FB7F89480913F
:10021000800190918101A0918201B091830126B566
:10022000A89B05C02F3F19F00196A11DB11D3FBF2E
:10023000BA2FA92F982F8827BC01CD01620F711DFD
:10024000811D911D42E0660F771F881F991F4A95F7
:10025000D1F708958F929F92AF92BF92CF92DF9283
:10026000EF92FF924B015C010E9405016B017C0142
:100270000E9405016C197D098E099F09683E734033
:1002800081059105A8F321E0821A9108A108B1081F
:1002900088EEC80E83E0D81EE11CF11C8114910485
:1002A000A104B10429F7FF90EF90DF90CF90BF90A9
:1002B000AF909F908F9008959091000189130BC08B
:1002C000E8E6F0E0E4919FEF90930001E13049F01F
:1002D00028F0E23061F060E00C94880010926E002B
:1002E000FACF90916F009D7F90936F00F4CF909123
:1002F00070009D7F9093700091E09093B00090917A
:10030000B100987F94609093B1001092B300E3CF56
:10031000AF92BF92CF92DF92EF92FF920F931F9313
:10032000CF93DF936C017B018B01040F151FEB0151
:100330005E01AE18BF08C017D10759F06991D60108
:10034000ED91FC910190F081E02DC6010995892B7A
:1003500079F7C501DF91CF911F910F91FF90EF9039
:10036000DF90CF90BF90AF900895089590E080E027
:1003700008958F929F92AF92BF920F931F93CF9346
:10038000DF93CDB7DEB7A1970FB6F894DEBF0FBEEF
:10039000CDBF19A2423008F44AE08E010F5D1F4F15
:1003A000842E912CB12CA12CA50194010E940E0643
:1003B000E62FB901CA01EA3044F5E05DD801EE93B9
:1003C0008D01232B242B252B79F790E080E01097CB
:1003D00069F0FD0101900020E9F73197AF014A1B58
:1003E0005B0BBD0184E891E00E948801A1960FB6E5
:1003F000F894DEBF0FBECDBFDF91CF911F910F915B
:10040000BF90AF909F908F900895E95CD7CFFC018B
:1004100001900020E9F73197AF01481B590BBC014F
:1004200084E891E00C948801CF93DF93EC0160E0C5
:100430008E810E94880061E08E810E94880060E0C9
:100440008E810E9488008BE891E00197F1F7DF919F
:10045000CF910895CF92DF92EF92FF920F931F9367
:10046000CF93DF936C017C0187E0E80EF11CD0E0B4
:10047000C0E0062F10E0B8010C2E02C075956795FC
:100480000A94E2F76170F70181917F010E94880070
:100490002196C430D10579F7C601DF91CF911F9124
:1004A0000F91FF90EF90DF90CF900C941402CF92B9
:1004B000DF92EF92FF920F931F93CF93DF93EC01A4
:1004C000F62E642F8C810E9488008D818F3F19F059
:1004D00060E00E9488000F2D10E08F8584FF25C00A
:1004E0006E0187E0C80ED11CF12CE12CB8010E2C56
:1004F00002C0759567950A94E2F76170F6018191E3
:100500006F010E948800FFEFEF1AFF0A88E0E816EB
:10051000F10461F7CE01DF91CF911F910F91FF9010
:10052000EF90DF90CF900C941402B80184E07595A1
:1005300067958A95E1F7CE010E942A026F2DCE01C0
:10054000DF91CF911F910F91FF90EF90DF90CF90AF
:100550000C942A0240E0682F84E891E00C94570242
:1005600081E00E94AA028BE39FE10197F1F70895D1
:10057000CF93DF93823029F4909193019860909308
:100580009301809397011092980180E480939901E0
:1005900080E180939A0180E580939B0161E08091E6
:1005A00088010E94D400809189018F3F19F061E099
:1005B0000E94D40061E080918A010E94D400C4E8C6
:1005C000D1E09E01245831408091930184FD0BC0FD
:1005D00084E090E021962817390744F461E08E8189
:1005E0000E94D400EECF88E090E0F4CF8BE39DE052
:1005F0000197F1F760E0809188010E94880060E037
:1006000080918A010E948800809189018F3F19F0B2
:1006100060E00E9488008091930184FD34C063E013
:1006200084E891E00E942A02CBE4D6E4CE0101974F
:10063000F1F763E084E891E00E942A022197F1F744
:1006400063E084E891E00E942A0283E592E001974A
:10065000F1F762E084E891E00E942A028091930120
:1006600080620E94AA0284E0809394018CE00E9440
:10067000AA020E94B00282E08093950186E0DF9199
:10068000CF910C94AA0280620E94AA028BE496E4A5
:100690000197F1F78091930180620E94AA0283E59D
:1006A00092E00197F1F78091930180620E94AA0283
:1006B000D5CF90919701891710F08FEF890FE82F10
:1006C000F0E0EC57FE4F848980680C94AA0241E068
:1006D0000E94570281E090E008951F920F920FB69A
:1006E0000F9211242F933F938F939F93AF93BF93B8
:1006F00080917C0190917D01A0917E01B0917F015C
:1007000030917B0123E0230F2D3758F50196A11D71
:10071000B11D20937B0180937C0190937D01A09378
:100720007E01B0937F018091800190918101A09121
:100730008201B09183010196A11DB11D80938001BA
:1007400090938101A0938201B0938301BF91AF91F7
:100750009F918F913F912F910F900FBE0F901F90FF
:10076000189526E8230F0296A11DB11DD2CF1F9226
:100770000F920FB60F9211242F933F934F935F93D5
:100780006F937F938F939F93AF93BF93EF93FF9359
:1007900080916D0190916E01A0916F01B0917001F7
:1007A000892B8A2B8B2BD1F190916801E091690103
:1007B000F0916A0180818927808380916D019091F9
:1007C0006E01A0916F01B0917001181619061A06FA
:1007D0001B069CF480916D0190916E01A0916F01B8
:1007E000B09170010197A109B10980936D019093B7
:1007F0006E01A0936F01B0937001FF91EF91BF91D3
:10080000AF919F918F917F916F915F914F913F91A8
:100810002F910F900FBE0F901F901895809100019F
:100820000E945C01EACF789484B5826084BD84B56F
:10083000816084BD85B5826085BD85B5816085BDDB
:1008400080916E00816080936E0010928100809193
:10085000810082608093810080918100816080931B
:100860008100809180008160809380008091B10040
:1008700084608093B1008091B00081608093B0006B
:1008800080917A00846080937A0080917A008260FF
:1008900080937A0080917A00816080937A008091C1
:1008A0007A00806880937A001092C10060E08EE048
:1008B0000E94D40061E086E00E94D40061E087E0FD
:1008C0000E94D40061E088E00E94D40060E086E0ED
:1008D0000E94880060E087E00E94880060E088E075
:1008E0000E94880082E00E94B8020E94B00280E06C
:1008F0000E9459038DE091E00E94070268EE73E0C8
:1009000080E090E00E942A013FE3832E3FE1932E96
:1009100045E8A42E40E0B42E09E910E050E0252E71
:1009200050E0352E44244A94542C3201D0E4D09324
:100930007C0080917A00806480937A0080917A00B4
:1009400086FDFCCF809178009091790090937A0198
:10095000809379010E94B00280E00E9459038EE1E9
:1009600091E00E940702C0907901D0907A010D2C8D
:10097000000CEE08FF084AE0C701B601F7FE0EC002
:1009800041E06DE284E891E00E94570266277727F4
:10099000CB016C197D098E099F094AE00E94B901BB
:1009A0008091790190917A0183339105FCF481E083
:1009B0000E94590384E291E00E94070261E086E010
:1009C0000E94880060E087E00E94880088E00E9422
:1009D0005C0160ED77E080E090E00E942A01211444
:1009E000310409F4A4CF0E940000A0CF8536910500
:1009F0004CF481E00E94590381E391E00E940702D8
:100A000060E0DDCF873991056CF481E00E945903E5
:100A100082E491E00E94070260E086E00E94880084
:100A200061E0D1CF81E00E94590384E591E00E940A
:100A3000070260E086E00E94880061E087E00E9493
:100A4000880080910001883031F5E8E6F0E0C4913B
:100A5000C7FDBFCF61E088E00E94D400CC2309F439
:100A600089C0C23009F09AC08091B100887F83604C
:100A70008093B10089EF8093B30040926D01509252
:100A80006E0160926F0170927001809170008260BF
:100A9000809370009ECF8F3F09F09BCF88E08093BA
:100AA0000001E8E6F0E0C491CF3F09F492CFC130F5
:100AB00019F150F0C23009F43CC0C7FD8ACF61E0A3
:100AC00088E00E94D400CDCF14BC15BC84B58260F0
:100AD00084BD85B5816085BDF5018491E82FF0E086
:100AE000EE0FFF1FED58FF4F85919491F80184910F
:100AF00080936C01C0E0AECF109280001092810014
:100B00008091810088608093810080918100816064
:100B100080938100F5018491E82FF0E0EE0FFF1F34
:100B2000ED58FF4F85919491F801849180936B016A
:100B300091CF1092B0001092B1008091B00082600D
:100B40008093B0008091B10081608093B100F50185
:100B50008491E82FF0E0EE0FFF1FED58FF4F8591D5
:100B6000949190936A0180936901F8018491809334
:100B7000680170CF85B5887F836085BD8CE787BDB0
:100B800040927501509276016092770170927801DF
:100B900080916E00826080936E001BCFC130C1F4E3
:100BA00080918100887F816080938100909289008C
:100BB000809288004092710150927201609273019C
:100BC0007092740180916F00826080936F0001CFFA
:100BD000C23021F0C111FDCE8FE3D1CF8FE34BCFD7
:100BE000E4E8F1E01382128285E091E09183808352
:100BF0008CE084838FEF85838BE0868385E0878319
:100C000084E0808783E0818782E082871386148670
:100C100015861686178681E00C94B802A1E21A2E7A
:100C2000AA1BBB1BFD010DC0AA1FBB1FEE1FFF1F90
:100C3000A217B307E407F50720F0A21BB30BE40BE0
:100C4000F50B661F771F881F991F1A9469F7609527
:100C50007095809590959B01AC01BD01CF010895E1
:100C6000EE0FFF1F0590F491E02D0994F894FFCF4B
:100C7000FF0000000067038801B601B5014151493A
:100C800020416C6572742053797374656D00415115
:100C9000493A20005374617475733A20476F6F644A
:100CA000005374617475733A204D6F64657261749A
:100CB00065005374617475733A20556E6865616C94
:100CC000746879005374617475733A2048617A616D
:080CD00072646F7573210000CE
:107E0000112484B714BE81FFF0D085E080938100F7
:107E100082E08093C00088E18093C10086E0809377
:107E2000C20080E18093C4008EE0C9D0259A86E02C
:107E300020E33CEF91E0309385002093840096BBD3
:107E4000B09BFECF1D9AA8958150A9F7CC24DD24C4
:107E500088248394B5E0AB2EA1E19A2EF3E0BF2EE7
:107E6000A2D0813461F49FD0082FAFD0023811F036
:107E7000013811F484E001C083E08DD089C08234E0
:107E800011F484E103C0853419F485E0A6D080C0E4
:107E9000853579F488D0E82EFF2485D0082F10E0AE
:107EA000102F00270E291F29000F111F8ED06801E7
:107EB0006FC0863521F484E090D080E0DECF843638
:107EC00009F040C070D06FD0082F6DD080E0C81688
:107ED00080E7D80618F4F601B7BEE895C0E0D1E017
:107EE00062D089930C17E1F7F0E0CF16F0E7DF06D8
:107EF00018F0F601B7BEE89568D007B600FCFDCFD4
:107F0000A601A0E0B1E02C9130E011968C91119780
:107F100090E0982F8827822B932B1296FA010C0160
:107F200087BEE89511244E5F5F4FF1E0A038BF0790
:107F300051F7F601A7BEE89507B600FCFDCF97BE46
:107F4000E89526C08437B1F42ED02DD0F82E2BD052
:107F50003CD0F601EF2C8F010F5F1F4F84911BD097
:107F6000EA94F801C1F70894C11CD11CFA94CF0C13
:107F7000D11C0EC0853739F428D08EE10CD085E9AC
:107F80000AD08FE07ACF813511F488E018D01DD067
:107F900080E101D065CF982F8091C00085FFFCCF94
:107FA0009093C60008958091C00087FFFCCF809118
:107FB000C00084FD01C0A8958091C6000895E0E648
:107FC000F0E098E1908380830895EDDF803219F02E
:107FD00088E0F5DFFFCF84E1DECF1F93182FE3DFCA
:107FE0001150E9F7F2DF1F91089580E0E8DFEE27F6
:047FF000FF270994CA
:027FFE00040479
:00000001FF
